{
  "transactions": [
    {
      "hash": "0x4dcd0515338a0147963b8d3bb3faab40d277b1ca435510ac6f972130c5e18eb9",
      "transactionType": "CALL",
      "contractName": null,
      "contractAddress": "0x7b230be939c5a7795938916e4f7409b5e0880f4c",
      "function": "testMint(address,uint256)",
      "arguments": [
        "0xa25347e4fd683dA05C849760b753a4014265254e",
        "100000000000000000000000"
      ],
      "transaction": {
        "from": "0x9038be19f4520b1d282c953cbe0a5b4a9ca144fe",
        "to": "0x7b230be939c5a7795938916e4f7409b5e0880f4c",
        "gas": "0xc4a2",
        "value": "0x0",
        "input": "0xf28e093d000000000000000000000000a25347e4fd683da05c849760b753a4014265254e00000000000000000000000000000000000000000000152d02c7e14af6800000",
        "nonce": "0x2ee",
        "chainId": "0xaa36a7"
      },
      "additionalContracts": [],
      "isFixedGasLimit": false
    }
  ],
  "receipts": [
    {
      "status": "0x1",
      "cumulativeGasUsed": "0x1b4e9f4",
      "logs": [
        {
          "address": "0x7b230be939c5a7795938916e4f7409b5e0880f4c",
          "topics": [
            "0xddf252ad1be2c89b69c2b068fc378daa952ba7f163c4a11628f55a4df523b3ef",
            "0x0000000000000000000000000000000000000000000000000000000000000000",
            "0x000000000000000000000000a25347e4fd683da05c849760b753a4014265254e"
          ],
          "data": "0x00000000000000000000000000000000000000000000152d02c7e14af6800000",
          "blockHash": "0x86d11f81044e438910c4c193228e68b9c4ac9f606ed51d3efd34f614e0845961",
          "blockNumber": "0x6b49da",
          "transactionHash": "0x4dcd0515338a0147963b8d3bb3faab40d277b1ca435510ac6f972130c5e18eb9",
          "transactionIndex": "0x40",
          "logIndex": "0x76",
          "removed": false
        }
      ],
      "logsBloom": "0x00000000000000000000000000000000000000000000000000000000000000000000000000000000000008000000000000000000000000000020000000000000000000000000000000000008000000000000000000000000000000000000000000000000020000000000000000000800000000000000000000000010040000000000000000000000000000000000000000000000000000000000000000000000080000000001000000000000000000000000000000000000000000000000000000000002000000000000000000000100000000000000000000000000000020000000000000000000000000000000000000000000000000000000000000000000",
      "type": "0x2",
      "transactionHash": "0x4dcd0515338a0147963b8d3bb3faab40d277b1ca435510ac6f972130c5e18eb9",
      "transactionIndex": "0x40",
      "blockHash": "0x86d11f81044e438910c4c193228e68b9c4ac9f606ed51d3efd34f614e0845961",
      "blockNumber": "0x6b49da",
      "gasUsed": "0x8e5d",
      "effectiveGasPrice": "0x3bb76139a",
      "from": "0x9038be19f4520b1d282c953cbe0a5b4a9ca144fe",
      "to": "0x7b230be939c5a7795938916e4f7409b5e0880f4c",
      "contractAddress": null
    }
  ],
  "libraries": [],
  "pending": [],
  "returns": {},
  "timestamp": 1730998180,
  "chain": 11155111,
  "commit": "18bb10e"
}